:020000040000FA
:030000000200CD2E
:03003300021D208B
:03004B00021000A0
:03006B00021DD59E
:10007B00020F3F00000080FBE479127807B8000202
:10008B008004F709D8FCE490F1FF789C7907800293
:10009B00F0A3D8FCD9FA7A9A7BF89000DC780D792A
:1000AB00018015E493A3AD82AE838A828B83F0A388
:1000BB00AA82AB838D828E83D8E9D9E712044A12C8
:1000CB00007E75D0007581BF7510FF7511F10200B0
:1000DB0083E80077017701770177017F0112010037
:1000EB0002020000205104A61609000102030109B7
:1000FB000243000201008019090400000102020101
:10010B000005240010010424020205240600010549
:10011B00240100010705820340004009040100028D
:10012B000A00000007058402400001070504024095
:10013B0000010403090416034E0069006700680000
:10014B007400730063006F007500740018034D009A
:10015B004D0043006F006D006D0061006E00640088
:10016B00650072000803300030003100030100000D
:10017B0026010000E96C7006EA6D7002EB6E22BB83
:10018B000102E722C082C08389828A83BB0003E01D
:10019B008002E493D083D08222BB000EC082C08346
:1001AB008A838982F0D083D08222BB0101F722E6B9
:1001BB00F008A3E6F008A3E6F008A3E6F022CAC015
:1001CB00E0E6F0A308DAFAD0E0FA22CAC0E0E0A336
:1001DB00C582CCC582C583CDC583F0A3C582CCC5F2
:1001EB0082C583CDC583DAE6D0E0CA22600D08C68E
:1001FB00A2E713C618C613C6D5E0F322600C08C6D7
:10020B00C313C618C613C6D5E0F422700422600DC2
:10021B0018C6C333C608C633C6D5E0F4182225105A
:10022B0010AF08F510400C15118008F510400215A1
:10023B0011D2AF2200C0D0251010AF08F510500C12
:10024B0005118008F51050020511D2AFD0D0222530
:10025B0010F58210AF08F510400C15118008F51041
:10026B0040021511D2AF85118322C5822510C5829C
:10027B00C583351110AF07F5118582108007F51175
:10028B00858210D2AFC583222510F582E43511F596
:10029B0083222510FAE43511FB22E4732510C58265
:1002AB00C0E0E51134FFC583C0E0E510C39582249F
:1002BB00F910AF088583118582108008858311851D
:1002CB008210D2AFCEF0A3E520F0A37808E608F0B9
:1002DB00A3DEFAEFF0A3E58124FBF8E608F0A3E632
:1002EB0008F0A30808E608F0A3E608F0A3158115AB
:1002FB0081D0E0FED0E0F815811581E8C0E0EEC0BA
:10030B00E022851183851082E0A3FEE0A3F520781F
:10031B0008E0A3F608DFFAE0A3FFE0A3C0E0E0A348
:10032B00C0E0E0A3C0E0E0A3C0E010AF08858210FE
:10033B008583118008858210858311D2AFD083D03D
:10034B008222C0D02510C582C0E0E51134FFC583E1
:10035B00C0E0E510C3958224F310AF0885831185A7
:10036B0082108008858311858210D2AFC8F0A3E973
:10037B00F0A3EAF0A3EBF0A37908E709F0A3D8FA0E
:10038B00ECF0A3EDF0A3EEF0A3EFF0A3D0E0F0A31D
:10039B00D0E0F0A3D0E0F0A3E520F0A3E5F0F0A3CC
:1003AB0022851183851082E0C0E0A3E0F9A3E0FA77
:1003BB00A3E0FBA37808E0F608A3DFFAE0FCA3E0D8
:1003CB00FDA3E0FEA3E0FFA3E0C0E0A3E0C0E0A339
:1003DB00E0F5D0A3E0F520A3E0A3F5F010AF08857E
:1003EB0083118582108008858311858210D2AFD04E
:1003FB0082D083D0E0F8D0E03274038004740280A2
:10040B0000C0E0F40412025AD0E01201C9227403B6
:10041B00800474028000CCC0E0EDC0E0E510C39C0A
:10042B00CCAD1150011D10AF068C108D1180068CB8
:10043B00108D11D2AF1201D6D0E0FDD0E0FC2275A9
:10044B0082FB7583FE120275120EE1120DAA120DBC
:10045B00C012067A120DD4120FDF7A007905120C36
:10046B00B3801A74021202937404F07C017D007441
:10047B000212029D120D7D12296012130FAC10ADEA
:10048B0011740512029D1210F2E9FA851082851182
:10049B0083E0F8A3E0F9E84960E37B0090F27FE0AA
:1004AB00A2E7E4336A7072851082851183C082C023
:1004BB008390F2FFE024FEF8A3E034FFF9D083D061
:1004CB0082E0687003A3E069704F7B017E008001BE
:1004DB000E8E08750900851082851183E0F8A3E064
:1004EB00F9C3E50898E50999502F8E087509007432
:1004FB0005120293E5822508F582E5833509F5831C
:10050B00E0F88E0875090074812508F58274F235C0
:10051B0009F583E06860B97B0074016B700302041A
:10052B006EEA700890F27F7402F0800690F27F748E
:10053B0082F0851082851183E0F8A3E0F9E890F250
:10054B0080F07E00802E8E087509007405120293D0
:10055B00E5822508F582E5833509F583E0C0E08E59
:10056B000875090074812508F58274F23509F58345
:10057B00D0E0F00E8E08750900851082851183E09E
:10058B00F8A3E0F9C3E50898E5099940B98510820D
:10059B00851183E02402F8A3E03400F990F2FFE820
:1005AB00F0A3E9F07E00802890F2FF8E0875090019
:1005BB00E0C39508FCA3E09509FD8E08750900744E
:1005CB007F2508FA74F23509FB120D7D74302EFE6F
:1005DB008E0875090090F2FFE0F8A3E0F9C3E50877
:1005EB0098E50999A2D265D033400302048890F2B2
:1005FB00FF8E08750900E0C39508F8A3E09509F98B
:10060B00C3E89431E99400A2D265D033409A7C3090
:10061B007D008E08750900747F2508FA74F2350980
:10062B00FB120D7D12296012130F80A074F81202B9
:10063B00A779007E007F0080050EEE70010FC3EEE0
:10064B009CEF9D5025EA2EF582EB3FF583E0C969BF
:10065B00C978088005E9C333F918E860DCE9A2E73B
:10066B0050F3E9C333649BF980EF7F0102030D74F0
:10067B00F71202A77C007D00802DECFAEDFBEA75EA
:10068B00F002A4CAAEF075F000A42EFE75F002EBDA
:10069B00A42EFB74052AF58274F33BF583E8F0A3D3
:1006AB00E9F00CEC70010DC3EC9400ED9401505586
:1006BB0078007900ECFAEDFBE4CAFB7E007F00804A
:1006CB0011E828F8E933F9EA2AFAEB33FB0EEE705E
:1006DB00010FC3EE9408EF9400509FE86AF508E908
:1006EB006BF509E5085400F508E5095480F509E5B3
:1006FB0008450960CCE828F8E933F9E86421F8E902
:10070B006410F980C27F0202030D74F51202A7EA8E
:10071B00FEEBFF7AFF7BFF7508007509008054EE36
:10072B002508F582EF3509F583E0F50A750B00EA2C
:10073B00F8EBF9E4C9F8E8650AF8E9650BF9E4CADE
:10074B00FBE875F002A4C885F00A75F000A4250A31
:10075B00F50A75F002E9A4250AF9740528F58274E7
:10076B00F339F583E06AFAA3E06BFB0508E5087043
:10077B00020509C3E5089CE5099D40A37F0402031C
:10078B000DE9F8E8602F14602F14602F14602F14FC
:10079B00602F14602F14602F14602F14602F1460BF
:1007AB002F14602F14602F14602F14602F14602FE0
:1007BB0014602F80307915227931227932227923F6
:1007CB0022793422792522792622791622791A2246
:1007DB00791922792A22790B22792C22790D227907
:1007EB000E22791C22790022C082C083E9F8E8240A
:1007FB00F570030208D124FE70030208E71470039E
:10080B000208F224F960411470030208A524FD705C
:10081B00030208BB1470030208B024FE7003020825
:10082B00FD24F9604724FE605B14606324FC7003B5
:10083B000208C624FE70030208DC24FB6016146059
:10084B001F24FE60330209088A828B837400F079BF
:10085B00000209118A828B837401F079000209115D
:10086B008A828B837402F079000209118A828B834E
:10087B007403F079000209118A828B837404F07976
:10088B00000209118A828B837405F0790080778AC4
:10089B00828B837406F07900806C8A828B83740759
:1008AB00F0790080618A828B837408F0790080561E
:1008BB008A828B837409F07900804B8A828B8374D4
:1008CB000AF0790080408A828B83740BF079008068
:1008DB00358A828B83740CF07900802A8A828B8311
:1008EB00740DF07900801F8A828B83740EF079006F
:1008FB0080148A828B83740FF0790080098A828B33
:10090B00837400F07901D083D0822274F11202A794
:10091B0074FC120229851082851183EAF0A3EBF097
:10092B007402120293ECF0A3EDF07415120293E033
:10093B00F50EA3E0F50F850E82850F837400F0A3EF
:10094B007400F07E007F00750800750900750A00C1
:10095B00750B00020A24851082851183E028FAA307
:10096B00E0398A82F583E0540FF912078CE9F98597
:10097B00080C85090D7406780C120216850C088577
:10098B000D09890C750D00E50C4508F508E50D45BD
:10099B0009F509EE2406FEEF3400FFC3EE9408EFD1
:1009AB009400A2D265D033406885080C85090DEE02
:1009BB0024F8780C1201F7E50CF9E9C0E0850E82FA
:1009CB00850F83E0F8A3E0F97413120293E028FA81
:1009DB00A3E0398A82F583D0E0F0850E82850F8300
:1009EB00E02401F0A3E03400F0EE24F8FEEF34FF36
:1009FB00FF750C01750D00EE780C120216E50C2438
:100A0B00FFF8E50D34FFF9E85508F508E95509F548
:100A1B0009050AE50A7002050B7402120293E0F84D
:100A2B00A3E0F9E875F002A4C8AAF075F000A42AB7
:100A3B00FA75F002E9A42AF9C3E50A98E50B995077
:100A4B0049A80AA90BE9C313F9E813F8E8FAE9FB7B
:100A5B00EA75F002A4CAACF075F000A42CFC75F09A
:100A6B0002EBA42CFBE50A6A7003E50B6B60030237
:100A7B000961851082851183E028FAA3E0398A8207
:100A8B00F583E0C4540FF9020975EE4F6067750AE0
:100A9B0001750B00EE780A120216E50A24FFF8E541
:100AAB000B34FFF9E85508F508E95509F5098508F0
:100ABB000A85090B7408C39E780A120216850A0868
:100ACB00850B09E508F9E9C0E0850E82850F83E007
:100ADB00F8A3E0F97413120293E028FAA3E0398A21
:100AEB0082F583D0E0F0850E82850F83E02401F040
:100AFB00A3E03400F0740412023F7F0802030D746C
:100B0B00F21202A774F91202297405120293EAF089
:100B1B00A3EBF07403120293ECF0A3EDF075080055
:100B2B00750900750E00750B0074011202937400A9
:100B3B00F0A37400F0020BDB8E0C8F0DE50824FA8A
:100B4B00780C1201F7E50CC0E0851082851183D07B
:100B5B00E0F0851082851183E0543FF0AA10AB11B1
:100B6B00851082851183E0F91207F3E9E50AC45475
:100B7B00F0F50A530AF0851082851183E0420A636F
:100B8B000E01E50E701DE50AC0E0E50BF879007467
:100B9B0015120293E028FAA3E0398A82F583D0E09C
:100BAB00F0050BE50824FAF508E50934FFF509C350
:100BBB00E5089406E5099400A2D265D03340030200
:100BCB000B437401120293E02401F0A3E03400F014
:100BDB007401120293C082C0837403120293E0F873
:100BEB00A3E0F9D083D082C3E098A3E0995034E41A
:100BFB00CEFF7401120293E0F8A3E0F97405120220
:100C0B0093E028FAA3E0398A82F583E0F87900E8CB
:100C1B004EFEE94FFFE5082408F508E5093400F519
:100C2B0009808CE50BF879007417120293E0FAA394
:100C3B00E0F5838A82E8F0A3E9F0740712023F7FA4
:100C4B000702030DD2AF22C2AF22A2AFE433FA7B6D
:100C5B0000C2AF22EAF8EAA2E092AF22EBC313FB89
:100C6B00EA13FAC3EA9402EB94004014000000006C
:100C7B00000000000000EA24FFFAEB34FFFB80E3E6
:100C8B002274F81202A7EAFEEBFFEEF8EFF9E82464
:100C9B00FFFEE934FFFFE84960097AE87B03120C99
:100CAB006780E77F0102030D74F51202A7E9FE7A54
:100CBB00057BF5122B067A887BF5122B06EE24FCAE
:100CCB006005146010801C750800750996750A0084
:100CDB00750B00801A7508007509E1750A00750B14
:100CEB0000800C7508007509C2750A01750B00AA06
:100CFB0008AB09AC0AAD0B12290F7F0402030D746C
:100D0B00F51202A78A828B838C088D097E007F00E7
:100D1B00800B750B00EE250AFEEF350BFFC3EE952E
:100D2B0008EF95095043EEF8E508C398F9E5822ED4
:100D3B00FCE5833FFD7A887BF5122B46E9F50AE546
:100D4B000A70CF7A057B00120C8CEEF8E508C3987D
:100D5B00F9E5822EFCE5833FFD7A887BF5122B4665
:100D6B00E9250AF50AE50A70A9EEFAEFFB7F040202
:100D7B00030D020D0AC008ECF9EAFCEBFD7A057BCA
:100D8B00F5122C078908AA087B00D00822C0087A24
:100D9B00057BF5122CAC8908AA087B00D00822E54C
:100DAB00F4A2E0E433F5F453F402C290C29143FE93
:100DBB000143FE022253BEFBE5BEA2E650FA0053EE
:100DCB00C6F853C68043BE0422C082C08390DF00A6
:100DDB0074FFF090DF017400F090DF0274FFF0906D
:100DEB00DF037400F090DF047400F090DF057400F3
:100DFB00F090DF067400F090DF077406F090DF08C8
:100E0B007400F090DF097426F090DF0A7430F090D4
:100E1B00DF0B7400F090DF0C7459F090DF0D7466EB
:100E2B00F090DF0E7433F090DF0F7462F090DF10F0
:100E3B00741AF090DF117413F090DF127407F090B6
:100E4B00DF137430F090DF147418F090DF15741703
:100E5B00F090DF16746CF090DF177403F090DF18CE
:100E6B007440F090DF197491F090DF1A7456F09083
:100E7B00DF1B7412F090DF1C74E9F090DF1D742AF5
:100E8B00F090DF1E7400F090DF1F741FF090DF23D3
:100E9B007488F090DF247431F090DF257409F090A2
:100EAB00DF277400F090DF287400F090DF297400C6
:100EBB00F090DF2A7400F090DF2B7400F090DF2CA1
:100ECB007452F090DF2D7400F090DF2E7400F0C29E
:100EDB00A8D083D08222C082C083780079007800AA
:100EEB007900801F74FF28F58274F139F583740043
:100EFB00F0747F28F58274F239F5837400F008E8FA
:100F0B00700109C3E89480E99400A2D265D0334004
:100F1B00D390F2FF7400F0A37400F090F30174000F
:100F2B00F0A37400F090F3037400F0A37400F0D0FE
:100F3B0083D08222C0E074F212034D74FE12022998
:100F4B00758A00C2EB7C017D00780079008021005E
:100F5B000AEA70010B74FF6A700374FF6B70F0A2E6
:100F6B009250087C007D007820790008E870010918
:100F7B00C3E89420E99400A2D265D03350067A00DE
:100F8B007B0080D174016C700374006D703790F826
:100F9B0015E06401701390F8157400F0D291851070
:100FAB00828511837413F0801190F8157401F0C2CF
:100FBB00918510828511837403F07C017D00AA104A
:100FCB00AB11120D7D758A00C2EA740212023F7FCB
:100FDB00010203ACC082C083C29090F8157401F07B
:100FEB00758A00C2EB438C02758D04D2AF439A1005
:100FFB00D083D08222C0E0C0D0C082C08353E4FC37
:10100B00758A00C2C190F3037400F0A37400F0D092
:10101B0083D082D0D0D0E03253E4FC75E200C2B969
:10102B002275E2002253E4FC75DB7F75DAFF75E273
:10103B000075E544C2C1D2AFD2B92274F71202A730
:10104B0075080B7509F8780812040875080B7509F3
:10105B00F67808120408120916740412023F90F86D
:10106B000BE0F8A3E0F9E890DF02F075E1047C00F7
:10107B007D007409120293E0FEA3E0FF801600EAE4
:10108B0024FFF8EB34FFF9E8FAE9FBE84970EF0CC1
:10109B00EC70010DC3EC9EED9FA2D265D0335036A0
:1010AB0075E1037A007B008018A28950FCC2897419
:1010BB000B2AF58274F63BF583E0F5D90AEA700149
:1010CB000B90F80BE0F8A3E0F9C3EA98EB9940D941
:1010DB007A007B1080A990DF0274FFF075E1047534
:1010EB00E1027F0202030D74F11202A78A0C8B0D31
:1010FB008C0A8D0B75E10475E10290DF0274FFF031
:10110B0090F81474FFF07E007F008031122960127A
:10111B00130FA28950F6E5D9C0E0740B2EF582743B
:10112B00F63FF583D0E0F0740B2EF58274F63FF5A5
:10113B0083E090F814F0C2890EEE70010FC3EE94A9
:10114B00F4EF9401500690F814E070C6EE24FFF80B
:10115B00EF34FFF990F80BE8F0A3E9F075E10478B0
:10116B000A120408780C12040890F80BE0FCA3E0B8
:10117B00FD7A0B7BF6120B0A740412023F850A826E
:10118B00850B83E024FFFCA3E034FFFDAA0CAB0D21
:10119B00120637E9FA850A82850B83E0F8A3E0F99A
:1011AB00E50C28F8E50D39F9E824FFF582E934FF61
:1011BB00F583E06A7005790002130A850A82850BB4
:1011CB0083E024FEFCA3E034FFFDAA0CAB0D120759
:1011DB00158A088B0985080E85090FA80E850A82CA
:1011EB00850B83E0FAA3E0FBE50C2AFAE50D3BFB4C
:1011FB00EA24FFF582EB34FFF583E068702E740868
:10120B00780E1201F7850A82850B83E0F8A3E0F9CB
:10121B00E50C28F8E50D39F9E824FEF582E934FFF1
:10122B00F583E0650E7005790002130A850A828545
:10123B000B83E024FEFCA3E034FFFDAA0CAB0D12E4
:10124B000637E9FA850A82850B83E0F8A3E0F9E516
:10125B000C28F8E50D39F9E824FEF582E934FFF5A1
:10126B0083E06A7014850A82850B83E024FFF0A368
:10127B00E034FFF0790002130A850A82850B83E0C4
:10128B0024FDFCA3E034FFFDAA0CAB0D1207158A5D
:10129B00088B0985080E85090F850E08850A82853E
:1012AB000B83E0F8A3E0F9E50C28F8E50D39F9E834
:1012BB0024FEF582E934FFF583E06508703C740881
:1012CB00780E1201F7850A82850B83E0F8A3E0F90B
:1012DB00E50C28F8E50D39F9E824FDF582E934FF32
:1012EB00F583E0650E7013850A82850B83E024FF7E
:1012FB00F0A3E034FFF07900800512067A79017FC4
:10130B000802030D74F31202A77480120229120D46
:10131B00988A088B0985080A85090B7508007509D9
:10132B0000802DE50AC39508FCE50B9509FD85109A
:10133B0082851183E5822508FAE5833509FB120DB9
:10134B0080122960E5082430F508E5093400F50919
:10135B00C3E508950AE509950B501AE50AC39508EC
:10136B00F8E50B9509F9C3E89431E9940040B47C96
:10137B00307D0080B9750800750900801490F30367
:10138B00E02401F0A3E03400F00508E50870020545
:10139B0009C3E508950AE509950B40030216798503
:1013AB001082851183E5822508F582E5833509F5E1
:1013BB0083E0C0E090F303E024FFF8A3E034F1F9FD
:1013CB0088828983D0E0F090F303E0F8A3E0F9E89A
:1013DB004960030214B390F1FFE06401702590F3B0
:1013EB0003E02401F0A3E03400F090F80D7400F05A
:1013FB00A37400F090F80F7400F0A37400F01210B7
:10140B0030808690F1FFE06481702690F303E02436
:10141B0001F0A3E03400F090F80D7401F0A3740018
:10142B00F090F80F7400F0A37400F0121030021358
:10143B009490F1FFE064C1702690F303E02401F077
:10144B00A3E03400F090F80D7400F0A37400F0905A
:10145B00F80F7401F0A37400F01210300213949083
:10146B00F1FFE06403600890F1FFE06413701C90DF
:10147B00F8157401F0C29190F1FF7403F07C017DBB
:10148B00007AFF7BF1120D7D02139490F1FFE06067
:10149B000302139490F1FF7457F07C017D007AFFE7
:1014AB007BF1120D7D02139490F303E06401700441
:1014BB00A3E06400701A90F200E090F811F090F342
:1014CB0003E02401F0A3E03400F012102C0213947B
:1014DB0090F303E064027004A3E06400702190F2C7
:1014EB0001E0F8790090F812E8F0A3E9F090F3032B
:1014FB00E02401F0A3E03400F012102C02139490BE
:10150B00F303C3E09403A3E09400A2D265D033505D
:10151B000302139412102C90F303C082C08390F833
:10152B0011E0F87900E82402F8500109D083D08249
:10153B00E0687003A3E06960030213881210239024
:10154B00F80DE064017004A3E06400703990F303BC
:10155B00E02401FEA3E03400FF90F303EEF0A3EFD1
:10156B00F090F811E0FC7D007A027BF2120637E96D
:10157B00C0E074FF2EF58274F13FF583D0E0F0905C
:10158B00F811E02401F090F80FE064017004A3E07F
:10159B006400707190F811E0FC7D007A027BF2120E
:1015AB0007158A0C8B0DAA0CAB0D90F303E02401ED
:1015BB00FCA3E03400FD90F303ECF0A3EDF08A0CF8
:1015CB008B0D7408780C1201F7E50CC0E074FF2C3E
:1015DB00F58274F13DF583D0E0F090F303E0240144
:1015EB00F8A3E03400F990F303E8F0A3E9F0EAC0C4
:1015FB00E074FF28F58274F139F583D0E0F090F8B0
:10160B0011E02402F090F811E0FC7D007A027BF2ED
:10161B00121683E9703490F81212041D90F811E041
:10162B00FC7D007A027BF2121046740212023F120A
:10163B00067A7C037D007AFF7BF1120D7D90F3031C
:10164B007400F0A37400F002139490F2007400F095
:10165B0090F2017400F07C037D007AFF7BF1120D98
:10166B007D90F3037400F0A37400F0021394748064
:10167B0012023F7F0602030D790122C082C08390C4
:10168B00F832E06422701E90F81FE0704290F8333D
:10169B00E0F8A3E0F990F856E8F0A3E9F090F81F12
:1016AB007402F0802A90F832E06420701C90F81FCE
:1016BB00E0701C90F82C744FF0A374F8F0A3740036
:1016CB00F090F81F7402F0800690F81F7404F0D0AD
:1016DB0083D08222C082C08390F832E064217026CE
:1016EB0090F81FE0702690F82C744FF0A374F8F06C
:1016FB00A37400F090F82F7407F0A37400F090F827
:10170B001F7401F0800690F81F7404F0D083D08210
:10171B0022C082C08390F81F7404F0D083D0822241
:10172B00C082C08390F81F7404F0D083D08222C093
:10173B0082C08390F81F7404F0D083D08222C082C1
:10174B00C08390F81F7404F0D083D08222E9146018
:10175B001914601614601314601014600D14600AD1
:10176B00146007146004146001142222C082C08329
:10177B0090F89AE0F8A3E0F990F816E8F0A3E9F0F6
:10178B00D083D08222C082C083E9FCEAFD7A007B41
:10179B0000802290F816E0F8A3E0F5838882E493AA
:1017AB00F8790090F816E028F8A3E039F990F816CC
:1017BB00E8F0A3E9F090F816E0F8A3E0F990F89CB4
:1017CB00E0687003A3E069605790F816E0F8A3E0B7
:1017DB00F5838882A3E4936C702C90F816E0FAA33F
:1017EB00E0FB90F816E0F8A3E0F5838882E493F829
:1017FB00790090F816E028F8A3E039F990F816E88C
:10180B00F0A3E9F0801A90F816E0F8A3E0F58388CE
:10181B0082A3E4936D600302179EED700302179E83
:10182B00D083D082221217777A0079010217907435
:10183B00F71202A7E9FEEAFF1217777A0079021274
:10184B0017908A088B09A808A909E8FAE9FBE84967
:10185B00601CEE60108A828B83A3A3A3A3A3E493E3
:10186B006E70D88009EFF874FF28FFE870CD7F0207
:10187B0002030D74F61202A7E9FEEAFF8B0A7A0047
:10188B00EEF912183A7A0279041217908A088B092A
:10189B00A808A909E8FAE9FBE84960188A828B8352
:1018AB00A3A3E4936F70DE8A828B83A3A3A3E49339
:1018BB00650A70D17F0302030D74F71202A7E9FECC
:1018CB001217777A0079031217908A088B09AA08E6
:1018DB00AB09EEF874FF28FEE870E87F0202030DF7
:1018EB00C082C0837A00790112183A8A828B83A353
:1018FB00A3A3A3A3A3A3E493A2E65004D2F0800274
:10190B00C2F0A2F0E43390F82BF090F82A7400F0B8
:10191B0043BE80D2BDD083D08222C082C08390F8D8
:10192B00187402F090F8197400F090F81F7400F01E
:10193B007903121C08751200751300D083D0822214
:10194B0074F51202A790DE0EE0FE90DE0E7400F02E
:10195B0090DE11E0FFEFA2E4502190DE117480F0D5
:10196B0090F81F7407F0E512451360098512828504
:10197B0013831202A590F81F7400F0EFA2E2500C33
:10198B0090DE117400F090F81F7400F090F81FE0D7
:10199B0064026003021A2F90DE16E0F50A90F82C11
:1019AB00120419A90A7A207BDE121C567403120248
:1019BB003F850A0875090090F82FC3E09508F0A33E
:1019CB00E09509F0750B0090F82CE0F9A3E0FAA371
:1019DB00E0FBE9250AF9EA350BFA90F82CE9F0A3BC
:1019EB00EAF0A3EBF090F82FE0F8A3E0F9E84960F8
:1019FB000474408002744890DE11F090F82FE0F8E8
:101A0B00A3E0F9E8497015E51245136009851282C8
:101A1B008513831202A590F81F7400F0EE90DE0E72
:101A2B00F0021C0390F81FE0640670098512828592
:101A3B0013831202A590F81FE06003021B50EFA264
:101A4B00E04003021B507508317509F8750A0078E0
:101A5B000812040479087A207BDE121C56740312D8
:101A6B00023F75120075130090F831E0F87900E829
:101A7B0054E0F8E95400F9E8601D24E07003021B00
:101A8B002224E0607C24C0604824E07003021B2DFC
:101A9B0024E06078021B3890F832E014601C24FEBE
:101AAB00601324FE600A24FC601524FE6016801966
:101ABB001220AB807E12209F8079122093807412AB
:101ACB00261E806F122797806A90F81F7404F0808F
:101ADB006290F832E0600E24FA600F24FE6010244E
:101AEB00FE60118014121DF9804912211C804412D2
:101AFB0025BE803F12272C803A90F81F7404F0808B
:101B0B003275121C75131712171C802775122B7543
:101B1B00131712172B801C75128675131612168647
:101B2B0080117512DF7513161216DF800690F81FE1
:101B3B007404F090F81FE064047004746080027405
:101B4B004090DE11F090F81FE064016003021BED82
:101B5B007F0290F82FC3E09420A3E09400501290E2
:101B6B00F82FE0F8A3E0F9E8F50AD3EF92E3FF8052
:101B7B0003750A2090F82C120419A90A7A207BDE2F
:101B8B00121C93740312023F850A0875090090F822
:101B9B002CE0F9A3E0FAA3E0FBE92508F9EA350903
:101BAB00FA90F82CE9F0A3EAF0A3EBF0850A08759C
:101BBB00090090F82FC3E09508F0A3E09509F0EF2A
:101BCB0090DE11F0E50AC394205028E5124513600E
:101BDB00098512828513831202A590F81F7400F0F9
:101BEB00801190F81FE064057009851282851383BC
:101BFB001202A5EE90DE0EF07F0402030D74F712B5
:101C0B0002A778008018E9C0E088087509007420E5
:101C1B002508F58274F83509F583D0E0F008E8C3A0
:101C2B00940540E278008018E9C0E0880875090047
:101C3B0074252508F58274F83509F583D0E0F00892
:101C4B00E8C3940540E27F0202030D74F81202A769
:101C5B00EAFCEBFDE9F87408120293E0F9A3E0FA51
:101C6B00A3E0FBE8601D8C828D83E0C0E0D0E01226
:101C7B0001A4E92401F9EA3400FA74FF28FEEEF816
:101C8B00EE70E37F0102030D74F81202A7EAFCEB7E
:101C9B00FDE9F87408120293E0F9A3E0FAA3E0FB64
:101CAB00E8601D12018AC0E08C828D83D0E0F0E9E0
:101CBB002401F9EA3400FA74FF28FEEEF8EE70E323
:101CCB007F0102030D74F71202A77514007515003E
:101CDB007516008A178B18EA90DE0BF08A088B09B1
:101CEB0074047808120207E50890DE07F08A088B67
:101CFB000974097808120207E508543E90DE09F0D2
:101D0B00438C10758900C2C5758B00C2E8439A02DB
:101D1B007F0202030DC0E074F112034DE5BEA2E693
:101D2B0050FA90DE06E0FAEAA2E25038A817A9189A
:101D3B00E890DE0BF08517088518097404780812F3
:101D4B000207E50890DE07F0851708851809740966
:101D5B007808120207E508543E90DE09F090DE0188
:101D6B00E0D2E0F08A087509007814E50846F60819
:101D7B00E50946F61890DE02E0F5087509007404D3
:101D8B0078081202167814E50846F608E50946F6B7
:101D9B001890DE04E0F50875090074097808120242
:101DAB00167814E50846F608E50946F618EAA2E0A7
:101DBB00500375160174065A6003751600121776D8
:101DCB00758B00C2E87F020203ACC0E074F2120311
:101DDB004DE5BEA2E650FAE589F8E8A2E75005C248
:101DEB00BD1228EE758900C2C57F010203AC74F7E2
:101DFB001202A790F833E0F8A3E0F9E849701E90BF
:101E0B00F835E05400F8A3E054FFF9E849700E9060
:101E1B00F837E064027004A3E06400600990F81FD7
:101E2B007404F0021F4E90F831E0248060091460B6
:101E3B0048146062021F2290F835E0F8A3E0F9E83D
:101E4B0054FF600890F81F7404F0802A90F82BE080
:101E5B0060067801790080047800790090F839E801
:101E6B00F0A3E9F090F82AE0600C90F839E0440216
:101E7B00F0A3E04400F0021F2890F818E06404601F
:101E8B000890F81F7404F0800A90F8397400F0A3DE
:101E9B007400F0021F2890F835E0F8A3E0F9E8543D
:101EAB007FF50890F818E064047007E508C3940602
:101EBB00400890F81F7404F0806390F835E0F8A3A5
:101ECB00E0F9E854806028750900741F2508F58235
:101EDB0074F83509F583E0640370067801790080A6
:101EEB00047800790090F839E8F0A3E9F0802E75BA
:101EFB00090074242508F58274F83509F583E0642C
:101F0B000370067801790080047800790090F83925
:101F1B00E8F0A3E9F0800690F81F7404F090F81F26
:101F2B00E06404601E90F82C7439F0A374F8F0A3ED
:101F3B007400F090F82F7402F0A37400F090F81F67
:101F4B007401F07F0202030D74F71202A7E9FE90F1
:101F5B00F837E0F8A3E0F9E849701490F818E0645A
:101F6B0004601590F835E0F8A3E0F9E849600990B2
:101F7B00F81F7404F002208C90F831E0F87900E837
:101F8B00541FF8E95400F9E860091460301460320A
:101F9B0002208690F833E0F8A3E0F9E854FF6401DF
:101FAB006005790002208EEE90F82AF0EE6004793D
:101FBB0005800279067A0012175802208C790002EC
:101FCB00208E90F835E0F8A3E0F9E8547FFA90F80A
:101FDB0033E0F8A3E0F9E854FF6005790002208EA6
:101FEB00EAC39406400990F81F7404F002208CEAAF
:101FFB0090DE0EF090F835E0F8A3E0F9E85480603D
:10200B003AEE600474108002744090DE11F0EE60C2
:10201B0004740380027400C0E08A08750900741F01
:10202B002508F58274F83509F583D0E0F0EE6004ED
:10203B007908800279071217588038EE60047420F3
:10204B008002748090DE14F0EE60047403800274DE
:10205B0000C0E08A0875090074242508F58274F81D
:10206B003509F583D0E0F0EE6004790A8002790936
:10207B0012175890DE0E7400F0800690F81F74044F
:10208B00F079017F0202030D7900121F53E97003EF
:10209B0012173A227901121F53E9700312174922C2
:1020AB00C082C08390F835E0F8A3E0F9E849701CD2
:1020BB0090F837E0F8A3E0F9E849701090F833E0B6
:1020CB005480F8A3E054FFF9E849600890F81F74B6
:1020DB0004F0803890F833E0F8A3E0F9E890DE00E4
:1020EB00F090F833E0F8A3E0F9E854FF601090F8B3
:1020FB0018E06402701690F8187403F0800E90F8D4
:10210B0018E06403700690F8187402F0D083D08244
:10211B002274F51202A790F833E0F8A3E0F9E4C9B2
:10212B00F8E814600C14603D1470030221EA0222DB
:10213B00281218308A088B09750A8090F82CE5084C
:10214B00F0A3E509F0A3E50AF090F82CE0F9A3E081
:10215B00FAA3E0FB12018AF8790090F82FE8F0A3BC
:10216B00E9F00223E390F833E0FAA3E0FB790012E5
:10217B00183A8A088B09750A8090F82CE508F0A3A9
:10218B00E509F0A3E50AF090F82CE0F9A3E0FAA337
:10219B00E0FBE92402F9EA3400FA12018AFC7D0023
:1021AB0090F82CE0F9A3E0FAA3E0FBE92403F9EAA9
:1021BB003400FA12018AF87900E875F000A4C8AA75
:1021CB00F075F001A42AFA75F000E9A42AF9EC28BD
:1021DB00F8ED39F990F82FE8F0A3E9F00223E3903A
:1021EB00F833E0F8A3E0F9E8F91218C48A088B0970
:1021FB00750A8090F82CE508F0A3E509F0A3E50A31
:10220B00F090F82CE0F9A3E0FAA3E0FB12018AF8B6
:10221B00790090F82FE8F0A3E9F00223E390F82C73
:10222B007400F0A37400F0A37400F07A000223ACE6
:10223B00EAF87900E875F008A4C8ABF075F000A4D3
:10224B002BFB75F008E9A42BF990F89EE028FBA373
:10225B00E0398B82F583E493C0E090F833E0F8A388
:10226B00E0F9E4C9F8D0E06860030223ABEAF8793F
:10227B0000E875F008A4C8ABF075F000A42BFB7553
:10228B00F008E9A42BF990F89EE028FBA3E0398B2A
:10229B0082F583A3E493FB90F833E0F8A3E0F9E82D
:1022AB0054FF6B60030223ABEAF87900E875F00882
:1022BB00A4C8ABF075F000A42BFB75F008E9A42BB8
:1022CB00F990F89EE028FBA3E0398B82F583A3A35A
:1022DB00E493C0E090F835E0F8A3E0F9E4C9F8D056
:1022EB00E06860030223ABEAF87900E875F008A414
:1022FB00C8ABF075F000A42BFB75F008E9A42BF923
:10230B0090F89EE028FBA3E0398B82F583A3A3A36F
:10231B00E493FB90F835E0F8A3E0F9E854FF6B7019
:10232B007FEAF87900E875F008A4C8ABF075F00007
:10233B00A42BFB75F008E9A42BF990F89EE028FB81
:10234B00A3E0398B82F583A3A3A3A3E493F50874CD
:10235B000193F509750A8090F82CE508F0A3E509BF
:10236B00F0A3E50AF0EAF87900E875F008A4C8AB29
:10237B00F075F000A42BFB75F008E9A42BF990F88D
:10238B009EE028FBA3E0398B82F583A3A3A3A3A331
:10239B00A3E493F8740193F990F82FE8F0A3E9F014
:1023AB000A8A0875090090F8A0C082C08390F89E35
:1023BB00E0F8A3E0F9D083D082E0C398F50AA3E05C
:1023CB0099F50B7403780A120207C3E508950AE521
:1023DB0009950B500302223B90F82CE0FCA3E0FD87
:1023EB00A3E0FE79007A007B0012017F700690F863
:1023FB001F7404F090F81FE06404603190F837C04C
:10240B0082C08390F82FE0F8A3E0F9D083D082C389
:10241B00E098A3E099501090F837E0F8A3E0F9901A
:10242B00F82FE8F0A3E9F090F81F7401F07F040295
:10243B00030D74F11202A78A0E8B0F850E82850F86
:10244B0083A3A3A3A3E493602690F8A2E0FEA3E0EA
:10245B00FF8007EE2404FE50010F8E828F83E493DE
:10246B00F8740193F9E50E687003E50F6970E47574
:10247B000800806690DE147490F090DE147410F0F7
:10248B00850C82850D83A3A3A3E49354036401708D
:10249B0005D3E992E6F9750A01750B00EC780A127F
:1024AB0002168E828F83A3A3A3E493550A6005D3F0
:1024BB00E992E0F9E990DE15F0EA90DE13F08C0A70
:1024CB00750B007424250AF58274F8350BF58374AB
:1024DB0000F090DE0E7400F00508850E82850F83E8
:1024EB00A3A3A3A3E493F8E508C39840030225B97B
:1024FB007A0079051217908A0A8B0BA80AA90B8808
:10250B000C890DE84960D1850C82850D83A3A3E46A
:10251B0093540FFCEC90DE0EF07900850C82850D48
:10252B0083A3A3A3A3E4932407F50AA3E4933400A2
:10253B00F50B7403780A120207AA0AAB0B850C82FF
:10254B00850D83A3A3E493A2E7400302247F90DECF
:10255B00117448F090DE117408F0850C82850D83A0
:10256B00A3A3A3E493540364017005D3E992E6F9A2
:10257B00750A01750B00EC780A1202168E828F8396
:10258B00A3A3E493550A6005D3E992E0F9E990DE41
:10259B0012F0EA90DE10F08C0A750B00741F250AFE
:1025AB00F58274F8350BF5837400F00224DD7F0897
:1025BB0002030DC082C08390F833E0F8A3E0F9E882
:1025CB0049701A90F835E0F8A3E0F9E849700E90DD
:1025DB00F837E064017004A3E06400600890F81F12
:1025EB007404F0802979187AF87B00E92401F9EA60
:1025FB003400FA90F82CE9F0A3EAF0A3EBF090F892
:10260B002F7401F0A37400F090F81F7401F0D083C5
:10261B00D0822274F61202A790F818E064026028A8
:10262B0090F835E0F8A3E0F9E849701C90F837E032
:10263B00F8A3E0F9E849701090F833E05400F8A3E0
:10264B00E054FFF9E849600990F81F7404F0022781
:10265B00277A00790112175890F833E0F8A3E0F9C4
:10266B00E854FF70030227087A0090F833E0F8A3D0
:10267B00E0F9E8F912183A8A088B09AE08AF09EEAF
:10268B004F607290F8187404F090F833E0F8A3E000
:10269B00F9E890F819F0750A008E828F83A3A3A333
:1026AB00A3E493F8E50AC398506B850A08750900F3
:1026BB00741A2508F58274F83509F5837400F07ADD
:1026CB000079041217908A088B09AA08AB098A8231
:1026DB008B83A3A3A3E493F8850A08750900741AE6
:1026EB002508F58274F83509F583E06870D112245A
:1026FB003D050A80A490F81F7404F0801890F833FD
:10270B00E0F8A3E0F9E890F819F090F8187403F0EA
:10271B007903121C087A0079021217587F030203FF
:10272B000D74F61202A790F818E06404702290F86A
:10273B0031E06481701A90F833E0F8A3E0F9E849CE
:10274B00700E90F837E064017004A3E06400600839
:10275B0090F81F7404F0802F90F835E0241AF508D8
:10276B00A3E034F8F509750A0090F82CE508F0A3FE
:10277B00E509F0A3E50AF090F82F7401F0A37400BB
:10278B00F090F81F7401F07F0302030D74F712022F
:10279B00A790F818E06404701490F831E0640170AD
:1027AB000C90F837E0F8A3E0F9E849600890F81FBF
:1027BB007404F0807390F833E0F8A3E0F9E8FB9031
:1027CB00F835E0F8A3E0F9E8FA90F819E0F91218F7
:1027DB007E8A088B09A808A909E8FEE9FFE8496089
:1027EB004190F835E0FAA3E0FB790312175890F803
:1027FB0033E0F8A3E0F9E8C0E090F835E0241AF8EC
:10280B00A3E034F8F988828983D0E0F0EEFAEFFB8D
:10281B0012243D90F835E0FAA3E0FB790412175827
:10282B00800690F81F7404F07F0202030DC082C073
:10283B0083C29190F84BE0F8A3E0F9E849600E9061
:10284B00F84BE0F8A3E0F58388821202A590F83BE1
:10285B007453F090F83C74BEF090F83D74FCF0901B
:10286B00F83E7443F090F83F74BEF090F84074015A
:10287B00F090F8417475F090F8427487F090F8433B
:10288B007401F090F84474E5F07414240290F84548
:10289B00F090F8467470F090F84774F3F090F848A5
:1028AB007422F0758900C2C5D2BD783B79F890F8D7
:1028BB0049E8F0A3E9F090F849E0F8A3E0F5838844
:1028CB00821202A590F84DE0F8A3E0F9E849600EFA
:1028DB0090F84DE0F8A3E0F58388821202A5D0832F
:1028EB00D08222C082C08390F8407400F090F841EF
:1028FB007400F090F8427400F090F8437400F0D03C
:10290B0083D0822274F51202A78A088B098C0A8D58
:10291B000B90F84F78081201BA90F8537400F090AE
:10292B00F8547400F090F8557408F090F856740051
:10293B00F0A37400F090F8587401F01218EB7AFFC2
:10294B007BFF121CD053F4FED29043FE01120C4FAE
:10295B007F0402030DC082C08312298490F858E0D3
:10296B00601290F856E0F8A3E0F9E8496006122AE5
:10297B00511229D9D083D08222A814A915E8540466
:10298B00600F7814E654FBF608E654FFF61812199C
:10299B0025A814A915E85410600F7814E654EFF627
:1029AB0008E654FFF61812194BA814A915E8A2E073
:1029BB00501B7814E654FEF608E654FFF61812285E
:1029CB00387814E654FDF608E654FFF6182274F630
:1029DB001202A7120C5290DE0EE090F899F090DEE6
:1029EB000E7404F090DE11E0A2E0404A7A887BF589
:1029FB00122CACE9FEEE603EEEC3944140027E40E9
:102A0B00EEF97C597DF87A887BF5122C07E975086D
:102A1B00597509F8750A007808120404EEF97A283A
:102A2B007BDE121C93740312023F90DE0E7404F0D3
:102A3B0090DE117401F090F899E090DE0EF0120C1C
:102A4B004F7F0302030D74F51202A7120C5290DE96
:102A5B000EE090F899F090DE0E7404F090DE14E026
:102A6B00A2E04003022AF690DE16E0FE90DE17E0AD
:102A7B00FF7A057BF5122CACE9F879007480C398CA
:102A8B00F8740099F98E08750900C3E89508E99563
:102A9B0009A2D265D03350107A057BF5122CACE924
:102AAB00F87480C398FF8002EEFF8F0BE50B603B41
:102ABB007508597509F8750A007808120404A90BF2
:102ACB007A287BDE121C56740312023FA90B7C5929
:102ADB007DF87A057BF5122B46E9E50B6E700C90B1
:102AEB00DE0E7404F090DE147400F090F899E09010
:102AFB00DE0EF0120C4F7F0402030D74F71202A7C7
:102B0B00EAFEEBFF120C558A088B09AA08AB09EEFB
:102B1B002480F582E43FF5837400F0EE2481F58286
:102B2B00E43FF5837400F0EE2482F582E43FF583F5
:102B3B007400F0120C5F7F0202030D74F31202A7F4
:102B4B00EAFEEBFF8C088D09890A120C558A0C8B57
:102B5B000DAA0CAB0DEE2480F582E43FF583E0F873
:102B6B007900850A0C750D00E8250CF8E9350DF98F
:102B7B00C3E89480E99400A2D265D0335071750BF1
:102B8B00008056850B0C750D00E508250CF582E5CC
:102B9B0009350DF583E0C0E0EE2482F582E43FF5C4
:102BAB0083E0F87900EE28F582EF39F583D0E0F079
:102BBB00EE2482F582E43FF583E02401F0EE2482DB
:102BCB00F582E43FF583E06480700CEE2482F5829D
:102BDB00E43FF5837400F0050BE50BC3950A40A3A6
:102BEB00EE2480F582E43FF583E0250BF08003753E
:102BFB000B00120C5FA90B7F0602030D74F312027C
:102C0B00A7EAFEEBFF8C088D09890C120C558A0A7A
:102C1B008B0BAA0AAB0B750D008056EE2481F58247
:102C2B00E43FF583E0F87900EE28F582EF39F58380
:102C3B00E0C0E0850D0A750B00E508250AF582E575
:102C4B0009350BF583D0E0F0EE2481F582E43FF5F6
:102C5B0083E02401F0EE2481F582E43FF583E06408
:102C6B0080700CEE2481F582E43FF5837400F0054F
:102C7B000DE50DC3950C5011EE2480F582E43FF564
:102C8B0083E0F8E50DC3984092EE2480F582E43F93
:102C9B00F583E0C3950DF0120C5FA90D7F060203BF
:102CAB000DC082C083EA2480F582E43BF583E0F912
:052CBB00D083D082224D
:04000005000000CD2A
:00000001FF
