:020000040000FA
:030000000200CD2E
:03003300021DF5B6
:03004B0002103A66
:03006B00021EAAC8
:10007B00020F7900000080FBE479127807B80002C8
:10008B008004F709D8FCE490F1FF78207906800210
:10009B00F0A3D8FCD9FA7A1E7BF79000DC7815799F
:1000AB00018015E493A3AD82AE838A828B83F0A388
:1000BB00AA82AB838D828E83D8E9D9E7120484128E
:1000CB00007E75D0007581BF7510FF7511F10200B0
:1000DB0083F0007F017F017F017F01870101000019
:1000EB0000005D000012010002020000205104A676
:1000FB0016090001020301090243000201008019E5
:10010B00090400000102020100052400100104246F
:10011B0002020524060001052401000107058203E4
:10012B0040004009040100020A0000000705840298
:10013B0040000107050402400001040309041603F3
:10014B004E006900670068007400730063006F0065
:10015B007500740018034D004D0043006F006D00D7
:10016B006D0061006E0064006500720008033000D2
:10017B00300031000B0100002E010000C3E0960897
:10018B00A3E09608A3E09608A3E09622E96C70061C
:10019B00EA6D7002EB6E22BB0102E722C082C083C4
:1001AB0089828A83BB0003E08002E493D083D082F0
:1001BB0022BB000EC082C0838A838982F0D083D099
:1001CB008222BB0101F722E026F008A3E036F008FB
:1001DB00A3E036F008A3E036F022E0F608A3E0F641
:1001EB0008A3E0F608A3E0F622E6F008A3E6F00881
:1001FB00A3E6F008A3E6F022CAC0E0E6F0A308DA13
:10020B00FAD0E0FA22CAC0E0E0A3C582CCC582C511
:10021B0083CDC583F0A3C582CCC582C583CDC583F1
:10022B00DAE6D0E0CA22600D08C6A2E713C618C6EC
:10023B0013C6D5E0F322600C08C6C313C618C61349
:10024B00C6D5E0F422700422600D18C6C333C6086D
:10025B00C633C6D5E0F41822251010AF08F51040B0
:10026B000C15118008F51040021511D2AF2200C0F9
:10027B00D0251010AF08F510500C05118008F510A3
:10028B0050020511D2AFD0D0222510F58210AF0845
:10029B00F510400C15118008F51040021511D2AF66
:1002AB0085118322C5822510C582C583351110AFF8
:1002BB0007F5118582108007F511858210D2AFC525
:1002CB0083222510F582E43511F583222510FAE4FB
:1002DB003511FB22E4732510C582C0E0E51134FF14
:1002EB00C583C0E0E510C3958224F910AF08858360
:1002FB00118582108008858311858210D2AFCEF0D4
:10030B00A3E520F0A37808E608F0A3DEFAEFF0A34C
:10031B00E58124FBF8E608F0A3E608F0A30808E65D
:10032B0008F0A3E608F0A315811581D0E0FED0E01C
:10033B00F815811581E8C0E0EEC0E02285118385B8
:10034B001082E0A3FEE0A3F5207808E0A3F608DF17
:10035B00FAE0A3FFE0A3C0E0E0A3C0E0E0A3C0E0AD
:10036B00E0A3C0E010AF088582108583118008855B
:10037B008210858311D2AFD083D08222C0D02510BA
:10038B00C582C0E0E51134FFC583C0E0E510C3951D
:10039B008224F310AF088583118582108008858332
:1003AB0011858210D2AFC8F0A3E9F0A3EAF0A3EB5A
:1003BB00F0A37908E709F0A3D8FAECF0A3EDF0A3CA
:1003CB00EEF0A3EFF0A3D0E0F0A3D0E0F0A3D0E0E9
:1003DB00F0A3E520F0A3E5F0F0A3228511838510AF
:1003EB0082E0C0E0A3E0F9A3E0FAA3E0FBA3780866
:1003FB00E0F608A3DFFAE0FCA3E0FDA3E0FEA3E038
:10040B00FFA3E0C0E0A3E0C0E0A3E0F5D0A3E0F5DC
:10041B0020A3E0A3F5F010AF08858311858210802F
:10042B0008858311858210D2AFD082D083D0E0F8BB
:10043B00D0E0327403800474028000C0E0F4041234
:10044B000294D0E012020322740380047402800031
:10045B00CCC0E0EDC0E0E510C39CCCAD1150011D4C
:10046B0010AF068C108D1180068C108D11D2AF122F
:10047B000210D0E0FDD0E0FC227582FB7583FE12EA
:10048B0002AF120F1B120DE4120DFA1206B4120E6C
:10049B000E1210197A007905120CED801A740212E3
:1004AB0002CD7404F07C017D0074021202D7120D90
:1004BB00B7122A351213E4AC10AD1174051202D722
:1004CB001211A5E9FA851082851183E0F8A3E0F9F2
:1004DB00E84960E37B0090F27FE0A2E7E4336A70C7
:1004EB0072851082851183C082C08390F2FFE02455
:1004FB00FEF8A3E034FFF9D083D082E0687003A349
:10050B00E069704F7B017E0080010E8E087509003B
:10051B00851082851183E0F8A3E0F9C3E50898E51F
:10052B000999502F8E0875090074051202CDE582CA
:10053B002508F582E5833509F583E0F88E08750902
:10054B000074812508F58274F23509F583E0686043
:10055B00B97B0074016B70030204A8EA700890F277
:10056B007F7402F0800690F27F7482F08510828592
:10057B001183E0F8A3E0F9E890F280F07E00802E82
:10058B008E0875090074051202CDE5822508F582E7
:10059B00E5833509F583E0C0E08E087509007481A9
:1005AB002508F58274F23509F583D0E0F00E8E083C
:1005BB00750900851082851183E0F8A3E0F9C3E586
:1005CB000898E5099940B9851082851183E02402CA
:1005DB00F8A3E03400F990F2FFE8F0A3E9F07E0015
:1005EB00802890F2FF8E08750900E0C39508FCA3E4
:1005FB00E09509FD8E08750900747F2508FA74F2E1
:10060B003509FB120DB774302EFE8E08750900905C
:10061B00F2FFE0F8A3E0F9C3E50898E50999A2D247
:10062B0065D03340030204C290F2FF8E08750900B7
:10063B00E0C39508F8A3E09509F9C3E89431E99470
:10064B0000A2D265D033409A7C307D008E087509AC
:10065B0000747F2508FA74F23509FB120DB7122AC4
:10066B00351213E480A074F81202E179007E007F4A
:10067B000080050EEE70010FC3EE9CEF9D5025EA36
:10068B002EF582EB3FF583E0C969C978088005E94F
:10069B00C333F918E860DCE9A2E750F3E9C333642C
:1006AB009BF980EF7F0102034774F71202E17C0094
:1006BB007D00802DECFAEDFBEA75F002A4CAAEF0DA
:1006CB0075F000A42EFE75F002EBA42EFB74052A28
:1006DB00F58274F33BF583E8F0A3E9F00CEC7001C1
:1006EB000DC3EC9400ED9401505578007900ECFAB1
:1006FB00EDFBE4CAFB7E007F008011E828F8E933AC
:10070B00F9EA2AFAEB33FB0EEE70010FC3EE9408F5
:10071B00EF9400509FE86AF508E96BF509E508547A
:10072B0000F508E5095480F509E508450960CCE8B2
:10073B0028F8E933F9E86421F8E96410F980C27FFD
:10074B000202034774F51202E1EAFEEBFF7AFF7B2C
:10075B00FF7508007509008054EE2508F582EF350A
:10076B0009F583E0F50A750B00EAF8EBF9E4C9F833
:10077B00E8650AF8E9650BF9E4CAFBE875F002A431
:10078B00C885F00A75F000A4250AF50A75F002E990
:10079B00A4250AF9740528F58274F339F583E06A08
:1007AB00FAA3E06BFB0508E50870020509C3E50831
:1007BB009CE5099D40A37F04020347E9F8E8602FFD
:1007CB0014602F14602F14602F14602F14602F14DB
:1007DB00602F14602F14602F14602F14602F14607F
:1007EB002F14602F14602F14602F14602F8030791A
:1007FB0015227931227932227923227934227925F3
:10080B0022792622791622791A22791922792A221B
:10081B00790B22792C22790D22790E22791C2279DF
:10082B000022C082C083E9F8E824F5700302090BAB
:10083B0024FE700302092114700302092C24F960B1
:10084B00411470030208DF24FD70030208F51470D5
:10085B00030208EA24FE700302093724F9604724D7
:10086B00FE605B14606324FC700302090024FE70BD
:10087B000302091624FB601614601F24FE6033026A
:10088B0009428A828B837400F0790002094B8A82B9
:10089B008B837401F0790002094B8A828B8374027B
:1008AB00F0790002094B8A828B837403F079000282
:1008BB00094B8A828B837404F0790002094B8A827C
:1008CB008B837405F0790080778A828B837406F0B2
:1008DB007900806C8A828B837407F0790080618A3F
:1008EB00828B837408F0790080568A828B8374091B
:1008FB00F07900804B8A828B83740AF079008040F8
:10090B008A828B83740BF0790080358A828B837497
:10091B000CF07900802A8A828B83740DF079008029
:10092B001F8A828B83740EF0790080148A828B83EA
:10093B00740FF0790080098A828B837400F079013F
:10094B00D083D0822274F11202E174FC120263850F
:10095B001082851183EAF0A3EBF074021202CDEC46
:10096B00F0A3EDF074151202CDE0F50EA3E0F50F38
:10097B00850E82850F837400F0A37400F07E007FD8
:10098B0000750800750900750A00750B00020A5EF8
:10099B00851082851183E028FAA3E0398A82F583DA
:1009AB00E0540FF91207C6E9F985080C85090D7497
:1009BB0006780C120250850C08850D09890C750DF3
:1009CB0000E50C4508F508E50D4509F509EE24068B
:1009DB00FEEF3400FFC3EE9408EF9400A2D265D073
:1009EB0033406885080C85090DEE24F8780C12024B
:1009FB0031E50CF9E9C0E0850E82850F83E0F8A3A1
:100A0B00E0F974131202CDE028FAA3E0398A82F5DB
:100A1B0083D0E0F0850E82850F83E02401F0A3E004
:100A2B003400F0EE24F8FEEF34FFFF750C01750D6A
:100A3B0000EE780C120250E50C24FFF8E50D34FFA4
:100A4B00F9E85508F508E95509F509050AE50A70AD
:100A5B0002050B74021202CDE0F8A3E0F9E875F081
:100A6B0002A4C8AAF075F000A42AFA75F002E9A452
:100A7B002AF9C3E50A98E50B995049A80AA90BE98D
:100A8B00C313F9E813F8E8FAE9FBEA75F002A4CA14
:100A9B00ACF075F000A42CFC75F002EBA42CFBE57C
:100AAB000A6A7003E50B6B600302099B8510828554
:100ABB001183E028FAA3E0398A82F583E0C4540F4E
:100ACB00F90209AFEE4F6067750A01750B00EE78FE
:100ADB000A120250E50A24FFF8E50B34FFF9E8553A
:100AEB0008F508E95509F50985080A85090B740805
:100AFB00C39E780A120250850A08850B09E508F98E
:100B0B00E9C0E0850E82850F83E0F8A3E0F974134A
:100B1B001202CDE028FAA3E0398A82F583D0E0F007
:100B2B00850E82850F83E02401F0A3E03400F0747E
:100B3B00041202797F0802034774F21202E174F97E
:100B4B0012026374051202CDEAF0A3EBF0740312E8
:100B5B0002CDECF0A3EDF0750800750900750E00E1
:100B6B00750B0074011202CD7400F0A37400F00237
:100B7B000C158E0C8F0DE50824FA780C120231E55A
:100B8B000CC0E0851082851183D0E0F08510828542
:100B9B001183E0543FF0AA10AB11851082851183AD
:100BAB00E0F912082DE9E50AC454F0F50A530AF0EE
:100BBB00851082851183E0420A630E01E50E701DDC
:100BCB00E50AC0E0E50BF8790074151202CDE028B8
:100BDB00FAA3E0398A82F583D0E0F0050BE508240F
:100BEB00FAF508E50934FFF509C3E5089406E509AC
:100BFB009400A2D265D0334003020B7D7401120224
:100C0B00CDE02401F0A3E03400F074011202CDC05A
:100C1B0082C08374031202CDE0F8A3E0F9D083D035
:100C2B0082C3E098A3E0995034E4CEFF7401120222
:100C3B00CDE0F8A3E0F974051202CDE028FAA3E0A9
:100C4B00398A82F583E0F87900E84EFEE94FFFE53B
:100C5B00082408F508E5093400F509808CE50BF844
:100C6B00790074171202CDE0FAA3E0F5838A82E8CB
:100C7B00F0A3E9F074071202797F07020347D2AFA2
:100C8B0022C2AF22A2AFE433FA7B00C2AF22EAF852
:100C9B00EAA2E092AF22EBC313FBEA13FAC3EA9486
:100CAB0002EB940040140000000000000000000064
:100CBB00EA24FFFAEB34FFFB80E32274F81202E123
:100CCB00EAFEEBFFEEF8EFF9E824FFFEE934FFFF55
:100CDB00E84960097AE87B03120CA180E77F0102E7
:100CEB00034774F51202E1E9FE7A057BF5122BDB63
:100CFB007A887BF5122BDBEE24FC600514601080E8
:100D0B001C750800750996750A00750B00801A751D
:100D1B0008007509E1750A00750B00800C75080059
:100D2B007509C2750A01750B00AA08AB09AC0AADAF
:100D3B000B1229E47F0402034774F51202E18A8245
:100D4B008B838C088D097E007F00800B750B00EE6A
:100D5B00250AFEEF350BFFC3EE9508EF95095043BF
:100D6B00EEF8E508C398F9E5822EFCE5833FFD7AA2
:100D7B00887BF5122C1BE9F50AE50A70CF7A057B07
:100D8B0000120CC6EEF8E508C398F9E5822EFCE5D7
:100D9B00833FFD7A887BF5122C1BE9250AF50AE5C2
:100DAB000A70A9EEFAEFFB7F04020347020D44C061
:100DBB0008ECF9EAFCEBFD7A057BF5122CDC8908D3
:100DCB00AA087B00D00822C0087A057BF5122D817A
:100DDB008908AA087B00D00822E5F4A2E0E433F5E9
:100DEB00F453F402C290C29143FE0143FE0222531C
:100DFB00BEFBE5BEA2E650FA0053C6F853C68043CD
:100E0B00BE0422C082C08390DF0074FFF090DF012C
:100E1B007400F090DF0274FFF090DF037400F09029
:100E2B00DF047400F090DF057400F090DF067400AF
:100E3B00F090DF077406F090DF087400F090DF0984
:100E4B007424F090DF0A742EF090DF0B7438F0905E
:100E5B00DF0C7459F090DF0D7466F090DF0E743375
:100E6B00F090DF0F7462F090DF10741AF090DF11C6
:100E7B007413F090DF127407F090DF137430F0905E
:100E8B00DF147418F090DF157417F090DF16746C84
:100E9B00F090DF177403F090DF187440F090DF19B7
:100EAB007491F090DF1A7456F090DF1B7412F0906F
:100EBB00DF1C74E9F090DF1D742AF090DF1E7400C4
:100ECB00F090DF1F741FF090DF237488F090DF2405
:100EDB007431F090DF257409F090DF277400F090E7
:100EEB00DF287400F090DF297400F090DF2A740083
:100EFB00F090DF2B7400F090DF2C7452F090DF2D0C
:100F0B007400F090DF2E7400F0C2A8D083D0822240
:100F1B00C082C0837800790078007900801F74FF4D
:100F2B0028F58274F139F5837400F0747F28F5820B
:100F3B0074F239F5837400F008E8700109C3E89482
:100F4B0080E99400A2D265D03340D390F2FF7400B5
:100F5B00F0A37400F090F3017400F0A37400F09010
:100F6B00F3037400F0A37400F0D083D08222C0E0AE
:100F7B0074F212038774FE120263758A00C2EB7C53
:100F8B00017D00780079008021000AEA70010B7462
:100F9B00FF6A700374FF6B70F0A29250087C007DA7
:100FAB00007820790008E8700109C3E89420E994DF
:100FBB0000A2D265D03350067A007B0080D1740139
:100FCB006C700374006D703790F699E064017013C8
:100FDB0090F6997400F0D291851082851183741369
:100FEB00F0801190F6997401F0C2918510828511F1
:100FFB00837403F07C017D00AA10AB11120DB77541
:10100B008A00C2EA74021202797F010203E6C082EF
:10101B00C083C29090F6997401F0758A00C2EB43BD
:10102B008C02758D04D2AF439A10D083D08222C02C
:10103B00E074EF12038753E4FC758A00C2C190F78A
:10104B002A78081201E590F60B78081201D290F776
:10105B002E78081201E590F60B7808120187401CD8
:10106B0075E10475E1027C007D007E007F0090F647
:10107B000BECF0A3EDF0A3EEF0A3EFF075E4017F22
:10108B00040203E653E4FC75E200C2B92274F812C1
:10109B0002E17C007D007E007F0090F60BECF0A35C
:1010AB00EDF0A3EEF0A3EFF075E2007F0102034732
:1010BB0074F81202E175E40C75DBFF75DAFF75E26B
:1010CB00007C007D007E007F0090F60BECF0A3ED22
:1010DB00F0A3EEF0A3EFF075E544C2C1D2AFD2B9E5
:1010EB0075E40E7F0102034774F71202E175088F56
:1010FB007509F6780812044275080F7509F6780819
:10110B00120442120950740412027990F68FE0F81F
:10111B00A3E0F9E890DF02F012108F75E1047C0078
:10112B007D0074091202CDE0FEA3E0FF801600EAF9
:10113B0024FFF8EB34FFF9E8FAE9FBE84970EF0C10
:10114B00EC70010DC3EC9EED9FA2D265D0335036EF
:10115B0075E1037A007B008018A28950FCC2897468
:10116B000F2AF58274F63BF583E0F5D90AEA700194
:10117B000B90F68FE0F8A3E0F9C3EA98EB9940D90E
:10118B007A007B1080A990DF0274FFF075E1047583
:10119B00E1021210BB7F0202034774F11202E18AD3
:1011AB000C8B0D8C0A8D0B75E10475E10290DF023F
:1011BB0074FFF090F69874FFF01210BB7E007F0066
:1011CB008050122A351213E4E5E9A2E6501653E9D2
:1011DB00BF90F69874FFF07E007F0075E10475E117
:1011EB0002121098A28950DA12108FE5D9C0E07460
:1011FB000F2EF58274F63FF583D0E0F0740F2EF5C9
:10120B008274F63FF583E090F698F0C2890EEE708B
:10121B00010FC3EE9480EF9400500690F698E070A7
:10122B00C3EE24FFF8EF34FFF990F68FE8F0A3E953
:10123B00F075E104780A120442780C12044290F61D
:10124B008FE0FCA3E0FD7A0F7BF6120B44740412C3
:10125B000279850A82850B83E024FFFCA3E034FF2F
:10126B00FDAA0CAB0D120671E9FA850A82850B8378
:10127B00E0F8A3E0F9E50C28F8E50D39F9E824FFCF
:10128B00F582E934FFF583E06A700579000213DF1C
:10129B00850A82850B83E024FEFCA3E034FFFDAAC4
:1012AB000CAB0D12074F8A088B0985080E85090FA9
:1012BB00A80E850A82850B83E0FAA3E0FBE50C2AD6
:1012CB00FAE50D3BFBEA24FFF582EB34FFF583E0F7
:1012DB0068702E7408780E120231850A82850B8392
:1012EB00E0F8A3E0F9E50C28F8E50D39F9E824FE60
:1012FB00F582E934FFF583E0650E70057900021382
:10130B00DF850A82850B83E024FEFCA3E034FFFD1E
:10131B00AA0CAB0D120671E9FA850A82850B83E0E4
:10132B00F8A3E0F9E50C28F8E50D39F9E824FEF50A
:10133B0082E934FFF583E06A7014850A82850B839A
:10134B00E024FFF0A3E034FFF079000213DF850AFD
:10135B0082850B83E024FDFCA3E034FFFDAA0CABDC
:10136B000D12074F8A088B0985080E85090F850E0C
:10137B0008850A82850B83E0F8A3E0F9E50C28F8D1
:10138B00E50D39F9E824FEF582E934FFF583E065D4
:10139B0008703C7408780E120231850A82850B8323
:1013AB00E0F8A3E0F9E50C28F8E50D39F9E824FDA0
:1013BB00F582E934FFF583E0650E7013850A8285AB
:1013CB000B83E024FFF0A3E034FFF07900800512DB
:1013DB0006B479017F0802034774F31202E17480AB
:1013EB00120263120DD28A088B0985080A85090B34
:1013FB00750800750900802DE50AC39508FCE50BFF
:10140B009509FD851082851183E5822508FAE58310
:10141B003509FB120DBA122A35E5082430F508E51B
:10142B00093400F509C3E508950AE509950B501A2F
:10143B00E50AC39508F8E50B9509F9C3E89431E97A
:10144B00940040B47C307D0080B9750800750900AC
:10145B00801490F303E02401F0A3E03400F00508BE
:10146B00E50870020509C3E508950AE509950B40E7
:10147B000302174E851082851183E5822508F582BC
:10148B00E5833509F583E0C0E090F303E024FFF832
:10149B00A3E034F1F988828983D0E0F090F303E084
:1014AB00F8A3E0F9E849600302158890F1FFE064C6
:1014BB0001702590F303E02401F0A3E03400F090D9
:1014CB00F6917400F0A37400F090F6937400F0A3FF
:1014DB007400F01210BB808690F1FFE064817026DF
:1014EB0090F303E02401F0A3E03400F090F6917444
:1014FB0001F0A37400F090F6937400F0A37400F065
:10150B001210BB02146990F1FFE064C1702690F3D6
:10151B0003E02401F0A3E03400F090F6917400F0A6
:10152B00A37400F090F6937401F0A37400F0121002
:10153B00BB02146990F1FFE06403600890F1FFE0D7
:10154B006413701C90F6997401F0C29190F1FF74C2
:10155B0003F07C017D007AFF7BF1120DB702146959
:10156B0090F1FFE0600302146990F1FF7459F07C75
:10157B00017D007AFF7BF1120DB702146990F30322
:10158B00E064017004A3E06400701A90F200E09034
:10159B00F695F090F303E02401F0A3E03400F01291
:1015AB00109802146990F303E064027004A3E064E2
:1015BB0000702190F201E0F8790090F696E8F0A324
:1015CB00E9F090F303E02401F0A3E03400F01210F3
:1015DB009802146990F303C3E09403A3E09400A270
:1015EB00D265D033500302146912109890F303C0E4
:1015FB0082C08390F695E0F87900E82402F8500158
:10160B0009D083D082E0687003A3E0696003021401
:10161B005D12108F90F691E064017004A3E06400FA
:10162B00703990F303E02401FEA3E03400FF90F344
:10163B0003EEF0A3EFF090F695E0FC7D007A027BD1
:10164B00F2120671E9C0E074FF2EF58274F13FF5DA
:10165B0083D0E0F090F695E02401F090F693E064EF
:10166B00017004A3E06400707190F695E0FC7D00BE
:10167B007A027BF212074F8A0C8B0DAA0CAB0D90E2
:10168B00F303E02401FCA3E03400FD90F303ECF042
:10169B00A3EDF08A0C8B0D7408780C120231E50C5B
:1016AB00C0E074FF2CF58274F13DF583D0E0F0902F
:1016BB00F303E02401F8A3E03400F990F303E8F01E
:1016CB00A3E9F0EAC0E074FF28F58274F139F583E1
:1016DB00D0E0F090F695E02402F090F695E0FC7DDA
:1016EB00007A027BF2121758E9703490F6961204C6
:1016FB005790F695E0FC7D007A027BF21210F374A2
:10170B00021202791206B47C037D007AFF7BF11280
:10171B000DB790F3037400F0A37400F002146990FA
:10172B00F2007400F090F2017400F07C037D007AFB
:10173B00FF7BF1120DB790F3037400F0A37400F06C
:10174B0002146974801202797F0602034779012221
:10175B00C082C08390F6B6E06422701E90F6A3E0C0
:10176B00704290F6B7E0F8A3E0F990F6DAE8F0A350
:10177B00E9F090F6A37402F0802A90F6B6E06420AC
:10178B00701C90F6A3E0701C90F6B074D3F0A374A9
:10179B00F6F0A37400F090F6A37402F0800690F6B6
:1017AB00A37404F0D083D08222C082C08390F6B69B
:1017BB00E06421702690F6A3E0702690F6B074D307
:1017CB00F0A374F6F0A37400F090F6B37407F0A3D3
:1017DB007400F090F6A37401F0800690F6A37404E5
:1017EB00F0D083D08222C082C08390F6A37404F021
:1017FB00D083D08222C082C08390F6A37404F0D031
:10180B0083D08222C082C08390F6A37404F0D0836D
:10181B00D08222C082C08390F6A37404F0D083D010
:10182B008222E914601914601614601314601014EA
:10183B00600D14600A146007146004146001142214
:10184B0022C082C08390F71EE0F8A3E0F990F69ACD
:10185B00E8F0A3E9F0D083D08222C082C083E9FCF8
:10186B00EAFD7A007B00802290F69AE0F8A3E0F57F
:10187B00838882E493F8790090F69AE028F8A3E045
:10188B0039F990F69AE8F0A3E9F090F69AE0F8A30C
:10189B00E0F990F720E0687003A3E069605790F6D9
:1018AB009AE0F8A3E0F5838882A3E4936C702C9004
:1018BB00F69AE0FAA3E0FB90F69AE0F8A3E0F58342
:1018CB008882E493F8790090F69AE028F8A3E0393F
:1018DB00F990F69AE8F0A3E9F0801A90F69AE0F8FE
:1018EB00A3E0F5838882A3E4936D6003021873ED84
:1018FB007003021873D083D0822212184C7A0079AD
:10190B000102186574F71202E1E9FEEAFF12184CA6
:10191B007A0079021218658A088B09A808A909E8C8
:10192B00FAE9FBE849601CEE60108A828B83A3A363
:10193B00A3A3A3E4936E70D88009EFF874FF28FF7C
:10194B00E870CD7F0202034774F61202E1E9FEEA6A
:10195B00FF8B0A7A00EEF912190F7A02790412182A
:10196B00658A088B09A808A909E8FAE9FBE8496028
:10197B00188A828B83A3A3E4936F70DE8A828B8396
:10198B00A3A3A3E493650A70D17F0302034774F703
:10199B001202E1E9FE12184C7A0079031218658ADB
:1019AB00088B09AA08AB09EEF874FF28FEE870E86B
:1019BB007F02020347C082C0837A00790112190F9C
:1019CB008A828B83A3A3A3A3A3A3A3E493A2E6502E
:1019DB0004D2F08002C2F0A2F0E43390F6AFF090A4
:1019EB00F6AE7400F043BE80D2BDD083D08222C04D
:1019FB0082C08390F69C7402F090F69D7400F09078
:101A0B00F6A37400F07903121CDD75120075130038
:101A1B00D083D0822274F51202E190DE0EE0FE90AC
:101A2B00DE0E7400F090DE11E0FFEFA2E450219087
:101A3B00DE117480F090F6A37407F0E51245136085
:101A4B00098512828513831202DF90F6A37400F0CE
:101A5B00EFA2E2500C90DE117400F090F6A374002C
:101A6B00F090F6A3E064026003021B0490DE16E024
:101A7B00F50A90F6B0120453A90A7A207BDE121DE8
:101A8B002B7403120279850A0875090090F6B3C30B
:101A9B00E09508F0A3E09509F0750B0090F6B0E027
:101AAB00F9A3E0FAA3E0FBE9250AF9EA350BFA9072
:101ABB00F6B0E9F0A3EAF0A3EBF090F6B3E0F8A3ED
:101ACB00E0F9E849600474408002744890DE11F03C
:101ADB0090F6B3E0F8A3E0F9E8497015E512451369
:101AEB0060098512828513831202DF90F6A37400BE
:101AFB00F0EE90DE0EF0021CD890F6A3E0640670B8
:101B0B00098512828513831202DF90F6A3E060032E
:101B1B00021C25EFA2E04003021C257508B57509D0
:101B2B00F6750A00780812043E79087A207BDE12DB
:101B3B001D2B740312027975120075130090F6B504
:101B4B00E0F87900E854E0F8E95400F9E8601D2466
:101B5B00E07003021BF724E0607C24C0604824E0A3
:101B6B007003021C0224E06078021C0D90F6B6E0B4
:101B7B0014601C24FE601324FE600A24FC601524F0
:101B8B00FE60168019122180807E122174807912DA
:101B9B00216880741226F3806F12286C806A90F68D
:101BAB00A37404F0806290F6B6E0600E24FA600F26
:101BBB0024FE601024FE60118014121ECE80491288
:101BCB0021F18044122693803F122801803A90F62F
:101BDB00A37404F080327512F17513171217F1808C
:101BEB0027751200751318121800801C75125B757F
:101BFB00131712175B80117512B47513171217B4E4
:101C0B00800690F6A37404F090F6A3E064047004CD
:101C1B0074608002744090DE11F090F6A3E06401D2
:101C2B006003021CC27F0290F6B3C3E09420A3E0D2
:101C3B009400501290F6B3E0F8A3E0F9E8F50AD35C
:101C4B00EF92E3FF8003750A2090F6B0120453A9BC
:101C5B000A7A207BDE121D687403120279850A084A
:101C6B0075090090F6B0E0F9A3E0FAA3E0FBE925D3
:101C7B0008F9EA3509FA90F6B0E9F0A3EAF0A3EB1C
:101C8B00F0850A0875090090F6B3C3E09508F0A338
:101C9B00E09509F0EF90DE11F0E50AC3942050288F
:101CAB00E512451360098512828513831202DF90BA
:101CBB00F6A37400F0801190F6A3E064057009851B
:101CCB0012828513831202DFEE90DE0EF07F040288
:101CDB00034774F71202E178008018E9C0E0880826
:101CEB0075090074A42508F58274F63509F583D0BF
:101CFB00E0F008E8C3940540E278008018E9C0E002
:101D0B00880875090074A92508F58274F63509F55C
:101D1B0083D0E0F008E8C3940540E27F020203475A
:101D2B0074F81202E1EAFCEBFDE9F874081202CD3B
:101D3B00E0F9A3E0FAA3E0FBE8601D8C828D83E061
:101D4B00C0E0D0E01201BCE92401F9EA3400FA74D6
:101D5B00FF28FEEEF8EE70E37F0102034774F812E2
:101D6B0002E1EAFCEBFDE9F874081202CDE0F9A3FD
:101D7B00E0FAA3E0FBE8601D1201A2C0E08C828DAB
:101D8B0083D0E0F0E92401F9EA3400FA74FF28FE6D
:101D9B00EEF8EE70E37F0102034774F71202E17570
:101DAB0014007515007516008A178B18EA90DE0B58
:101DBB00F08A088B0974047808120241E50890DE5A
:101DCB0007F08A088B0974097808120241E5085458
:101DDB003E90DE09F0438C10758900C2C5758B00EF
:101DEB00C2E8439A027F02020347C0E074F1120378
:101DFB0087E5BEA2E650FA90DE06E0FAEAA2E250D0
:101E0B0038A817A918E890DE0BF085170885180974
:101E1B0074047808120241E50890DE07F085170874
:101E2B0085180974097808120241E508543E90DEC2
:101E3B0009F090DE01E0D2E0F08A08750900781411
:101E4B00E50846F608E50946F61890DE02E0F508C7
:101E5B00750900740478081202507814E50846F6E8
:101E6B0008E50946F61890DE04E0F50875090074DC
:101E7B000978081202507814E50846F608E5094679
:101E8B00F618EAA2E0500375160174065A60037542
:101E9B00160012184B758B00C2E87F020203E6C0D6
:101EAB00E074F2120387E5BEA2E650FAE589F8E882
:101EBB00A2E75005C2BD1229C3758900C2C57F01B7
:101ECB000203E674F71202E190F6B7E0F8A3E0F92B
:101EDB00E849701E90F6B9E05400F8A3E054FFF9FE
:101EEB00E849700E90F6BBE064027004A3E0640056
:101EFB00600990F6A37404F002202390F6B5E02459
:101F0B00806009146048146062021FF790F6B9E014
:101F1B00F8A3E0F9E854FF600890F6A37404F0808E
:101F2B002A90F6AFE060067801790080047800799A
:101F3B000090F6BDE8F0A3E9F090F6AEE0600C90EF
:101F4B00F6BDE04402F0A3E04400F0021FFD90F662
:101F5B009CE06404600890F6A37404F0800A90F689
:101F6B00BD7400F0A37400F0021FFD90F6B9E0F809
:101F7B00A3E0F9E8547FF50890F69CE06404700741
:101F8B00E508C39406400890F6A37404F0806390B0
:101F9B00F6B9E0F8A3E0F9E85480602875090074FD
:101FAB00A32508F58274F63509F583E06403700602
:101FBB007801790080047800790090F6BDE8F0A3F1
:101FCB00E9F0802E75090074A82508F58274F635A2
:101FDB0009F583E0640370067801790080047800CA
:101FEB00790090F6BDE8F0A3E9F0800690F6A374B3
:101FFB0004F090F6A3E06404601E90F6B074BDF09C
:10200B00A374F6F0A37400F090F6B37402F0A3740B
:10201B0000F090F6A37401F07F0202034774F712ED
:10202B0002E1E9FE90F6BBE0F8A3E0F9E849701491
:10203B0090F69CE06404601590F6B9E0F8A3E0F923
:10204B00E849600990F6A37404F002216190F6B59B
:10205B00E0F87900E8541FF8E95400F9E860091436
:10206B00603014603202215B90F6B7E0F8A3E0F920
:10207B00E854FF640160057900022163EE90F6AE2F
:10208B00F0EE60047905800279067A0012182D02B1
:10209B002161790002216390F6B9E0F8A3E0F9E839
:1020AB00547FFA90F6B7E0F8A3E0F9E854FF600527
:1020BB007900022163EAC39406400990F6A37404E5
:1020CB00F0022161EA90DE0EF090F6B9E0F8A3E0A1
:1020DB00F9E85480603AEE6004741080027440900A
:1020EB00DE11F0EE6004740380027400C0E08A0815
:1020FB0075090074A32508F58274F63509F583D0AC
:10210B00E0F0EE600479088002790712182D803810
:10211B00EE600474208002748090DE14F0EE600494
:10212B00740380027400C0E08A0875090074A82546
:10213B0008F58274F63509F583D0E0F0EE6004798A
:10214B000A8002790912182D90DE0E7400F08006B9
:10215B0090F6A37404F079017F0202034779001211
:10216B002028E9700312180F227901122028E97038
:10217B000312181E22C082C08390F6B9E0F8A3E0C8
:10218B00F9E849701C90F6BBE0F8A3E0F9E8497058
:10219B001090F6B7E05480F8A3E054FFF9E84960DB
:1021AB000890F6A37404F0803890F6B7E0F8A3E03B
:1021BB00F9E890DE00F090F6B7E0F8A3E0F9E85408
:1021CB00FF601090F69CE06402701690F69C74030E
:1021DB00F0800E90F69CE06403700690F69C7402FF
:1021EB00F0D083D0822274F51202E190F6B7E0F8BA
:1021FB00A3E0F9E4C9F8E814600C14603D14700313
:10220B000222BF0222FD1219058A088B09750A806A
:10221B0090F6B0E508F0A3E509F0A3E50AF090F617
:10222B00B0E0F9A3E0FAA3E0FB1201A2F879009069
:10223B00F6B3E8F0A3E9F00224B890F6B7E0FAA3FE
:10224B00E0FB790012190F8A088B09750A8090F64A
:10225B00B0E508F0A3E509F0A3E50AF090F6B0E0CD
:10226B00F9A3E0FAA3E0FBE92402F9EA3400FA123D
:10227B0001A2FC7D0090F6B0E0F9A3E0FAA3E0FB2D
:10228B00E92403F9EA3400FA1201A2F87900E8759F
:10229B00F000A4C8AAF075F001A42AFA75F000E9C1
:1022AB00A42AF9EC28F8ED39F990F6B3E8F0A3E994
:1022BB00F00224B890F6B7E0F8A3E0F9E8F91219A8
:1022CB00998A088B09750A8090F6B0E508F0A3E5AA
:1022DB0009F0A3E50AF090F6B0E0F9A3E0FAA3E069
:1022EB00FB1201A2F8790090F6B3E8F0A3E9F00233
:1022FB0024B890F6B07400F0A37400F0A37400F04F
:10230B007A00022481EAF87900E875F008A4C8ABDA
:10231B00F075F000A42BFB75F008E9A42BF990F7EE
:10232B0022E028FBA3E0398B82F583E493C0E09095
:10233B00F6B7E0F8A3E0F9E4C9F8D0E0686003026F
:10234B002480EAF87900E875F008A4C8ABF075F0C2
:10235B0000A42BFB75F008E9A42BF990F722E028D9
:10236B00FBA3E0398B82F583A3E493FB90F6B7E0F4
:10237B00F8A3E0F9E854FF6B6003022480EAF879D4
:10238B0000E875F008A4C8ABF075F000A42BFB7542
:10239B00F008E9A42BF990F722E028FBA3E0398B96
:1023AB0082F583A3A3E493C0E090F6B9E0F8A3E031
:1023BB00F9E4C9F8D0E0686003022480EAF87900F8
:1023CB00E875F008A4C8ABF075F000A42BFB75F012
:1023DB0008E9A42BF990F722E028FBA3E0398B82C4
:1023EB00F583A3A3A3E493FB90F6B9E0F8A3E0F97C
:1023FB00E854FF6B707FEAF87900E875F008A4C821
:10240B00ABF075F000A42BFB75F008E9A42BF99049
:10241B00F722E028FBA3E0398B82F583A3A3A3A3C8
:10242B00E493F508740193F509750A8090F6B0E50D
:10243B0008F0A3E509F0A3E50AF0EAF87900E875DE
:10244B00F008A4C8ABF075F000A42BFB75F008E9FD
:10245B00A42BF990F722E028FBA3E0398B82F583BC
:10246B00A3A3A3A3A3A3E493F8740193F990F6B3E6
:10247B00E8F0A3E9F00A8A0875090090F724C082F6
:10248B00C08390F722E0F8A3E0F9D083D082E0C3B9
:10249B0098F50AA3E099F50B7403780A120241C36D
:1024AB00E508950AE509950B500302231090F6B049
:1024BB00E0FCA3E0FDA3E0FE79007A007B001201B3
:1024CB0097700690F6A37404F090F6A3E064046092
:1024DB003190F6BBC082C08390F6B3E0F8A3E0F96D
:1024EB00D083D082C3E098A3E099501090F6BBE064
:1024FB00F8A3E0F990F6B3E8F0A3E9F090F6A37433
:10250B0001F07F0402034774F11202E18A0E8B0F74
:10251B00850E82850F83A3A3A3A3E493602690F774
:10252B0026E0FEA3E0FF8007EE2404FE50010F8E91
:10253B00828F83E493F8740193F9E50E687003E5D9
:10254B000F6970E4750800806690DE147490F0904B
:10255B00DE147410F0850C82850D83A3A3A3E49382
:10256B00540364017005D3E992E6F9750A01750B02
:10257B0000EC780A1202508E828F83A3A3A3E493FC
:10258B00550A6005D3E992E0F9E990DE15F0EA907F
:10259B00DE13F08C0A750B0074A8250AF58274F60D
:1025AB00350BF5837400F090DE0E7400F005088592
:1025BB000E82850F83A3A3A3A3E493F8E508C39826
:1025CB00400302268E7A0079051218658A0A8B0B56
:1025DB00A80AA90B880C890DE84960D1850C828566
:1025EB000D83A3A3E493540FFCEC90DE0EF0790063
:1025FB00850C82850D83A3A3A3A3E4932407F50A7B
:10260B00A3E4933400F50B7403780A120241AA0A6F
:10261B00AB0B850C82850D83A3A3E493A2E7400348
:10262B0002255490DE117448F090DE117408F08589
:10263B000C82850D83A3A3A3E4935403640170055B
:10264B00D3E992E6F9750A01750B00EC780A1202D0
:10265B00508E828F83A3A3E493550A6005D3E9922E
:10266B00E0F9E990DE12F0EA90DE10F08C0A750BBF
:10267B000074A3250AF58274F6350BF5837400F00C
:10268B000225B27F08020347C082C08390F6B7E0F1
:10269B00F8A3E0F9E849701A90F6B9E0F8A3E0F96D
:1026AB00E849700E90F6BBE064017004A3E064008F
:1026BB00600890F6A37404F08029799C7AF67B006D
:1026CB00E92401F9EA3400FA90F6B0E9F0A3EAF054
:1026DB00A3EBF090F6B37401F0A37400F090F6A3A3
:1026EB007401F0D083D0822274F61202E190F69C32
:1026FB00E06402602890F6B9E0F8A3E0F9E84970CD
:10270B001C90F6BBE0F8A3E0F9E849701090F6B71F
:10271B00E05400F8A3E054FFF9E849600990F6A3F0
:10272B007404F00227FC7A00790112182D90F6B789
:10273B00E0F8A3E0F9E854FF70030227DD7A00907C
:10274B00F6B7E0F8A3E0F9E8F912190F8A088B093C
:10275B00AE08AF09EE4F607290F69C7404F090F6E1
:10276B00B7E0F8A3E0F9E890F69DF0750A008E82C9
:10277B008F83A3A3A3A3E493F8E50AC398506B85B7
:10278B000A08750900749E2508F58274F63509F55B
:10279B00837400F07A0079041218658A088B09AAF1
:1027AB0008AB098A828B83A3A3A3E493F8850A0859
:1027BB00750900749E2508F58274F63509F583E0DA
:1027CB006870D1122512050A80A490F6A37404F048
:1027DB00801890F6B7E0F8A3E0F9E890F69DF0903A
:1027EB00F69C7403F07903121CDD7A00790212183F
:1027FB002D7F0302034774F61202E190F69CE0640E
:10280B0004702290F6B5E06481701A90F6B7E0F888
:10281B00A3E0F9E849700E90F6BBE064017004A3E5
:10282B00E06400600890F6A37404F0802F90F6B972
:10283B00E0249EF508A3E034F6F509750A0090F63E
:10284B00B0E508F0A3E509F0A3E50AF090F6B37440
:10285B0001F0A37400F090F6A37401F07F03020360
:10286B004774F71202E190F69CE06404701490F642
:10287B00B5E06401700C90F6BBE0F8A3E0F9E84911
:10288B00600890F6A37404F0807390F6B7E0F8A399
:10289B00E0F9E8FB90F6B9E0F8A3E0F9E8FA90F676
:1028AB009DE0F91219538A088B09A808A909E8FEBB
:1028BB00E9FFE849604190F6B9E0FAA3E0FB790340
:1028CB0012182D90F6B7E0F8A3E0F9E8C0E090F607
:1028DB00B9E0249EF8A3E034F6F988828983D0E02E
:1028EB00F0EEFAEFFB12251290F6B9E0FAA3E0FB3B
:1028FB00790412182D800690F6A37404F07F02025F
:10290B000347C082C083C29190F6CFE0F8A3E0F9F1
:10291B00E849600E90F6CFE0F8A3E0F583888212C9
:10292B0002DF90F6BF7453F090F6C074BEF090F6D1
:10293B00C174FCF090F6C27443F090F6C374BEF011
:10294B0090F6C47401F090F6C57475F090F6C674E9
:10295B0087F090F6C77401F090F6C874E5F0741424
:10296B00240290F6C9F090F6CA7470F090F6CB740E
:10297B00F3F090F6CC7422F0758900C2C5D2BD7805
:10298B00BF79F690F6CDE8F0A3E9F090F6CDE0F83C
:10299B00A3E0F58388821202DF90F6D1E0F8A3E082
:1029AB00F9E849600E90F6D1E0F8A3E0F583888250
:1029BB001202DFD083D08222C082C08390F6C4740F
:1029CB0000F090F6C57400F090F6C67400F090F627
:1029DB00C77400F0D083D0822274F51202E18A080A
:1029EB008B098C0A8D0B90F6D378081201F490F6B4
:1029FB00D77400F090F6D87400F090F6D97408F004
:102A0B0090F6DA7400F0A37400F090F6DC7401F029
:102A1B001219C07AFF7BFF121DA553F4FED290430F
:102A2B00FE01120C897F04020347C082C083122A65
:102A3B005990F6DCE0601290F6DAE0F8A3E0F9E8E2
:102A4B00496006122B26122AAED083D08222A814FC
:102A5B00A915E85404600F7814E654FBF608E65405
:102A6B00FFF6181219FAA814A915E85410600F787C
:102A7B0014E654EFF608E654FFF618121A20A814C1
:102A8B00A915E8A2E0501B7814E654FEF608E654AC
:102A9B00FFF61812290D7814E654FDF608E654FFDC
:102AAB00F6182274F61202E1120C8C90DE0EE090F6
:102ABB00F71DF090DE0E7404F090DE11E0A2E04002
:102ACB004A7A887BF5122D81E9FEEE603EEEC394C7
:102ADB004140027E40EEF97CDD7DF67A887BF51273
:102AEB002CDCE97508DD7509F6750A007808120407
:102AFB003EEEF97A287BDE121D6874031202799080
:102B0B00DE0E7404F090DE117401F090F71DE0906E
:102B1B00DE0EF0120C897F0302034774F51202E1FB
:102B2B00120C8C90DE0EE090F71DF090DE0E74040C
:102B3B00F090DE14E0A2E04003022BCB90DE16E017
:102B4B00FE90DE17E0FF7A057BF5122D81E9F8790F
:102B5B00007480C398F8740099F98E08750900C346
:102B6B00E89508E99509A2D265D03350107A057B18
:102B7B00F5122D81E9F87480C398FF8002EEFF8F68
:102B8B000BE50B603B7508DD7509F6750A007808D7
:102B9B0012043EA90B7A287BDE121D2B7403120242
:102BAB0079A90B7CDD7DF67A057BF5122C1BE9E50B
:102BBB000B6E700C90DE0E7404F090DE147400F04B
:102BCB0090F71DE090DE0EF0120C897F0402034794
:102BDB0074F71202E1EAFEEBFF120C8F8A088B09E5
:102BEB00AA08AB09EE2480F582E43FF5837400F06C
:102BFB00EE2481F582E43FF5837400F0EE2482F538
:102C0B0082E43FF5837400F0120C997F02020347B4
:102C1B0074F31202E1EAFEEBFF8C088D09890A12AC
:102C2B000C8F8A0C8B0DAA0CAB0DEE2480F582E475
:102C3B003FF583E0F87900850A0C750D00E8250C4B
:102C4B00F8E9350DF9C3E89480E99400A2D265D078
:102C5B00335071750B008056850B0C750D00E50814
:102C6B00250CF582E509350DF583E0C0E0EE2482F5
:102C7B00F582E43FF583E0F87900EE28F582EF3931
:102C8B00F583D0E0F0EE2482F582E43FF583E02477
:102C9B0001F0EE2482F582E43FF583E06480700C52
:102CAB00EE2482F582E43FF5837400F0050BE50B0F
:102CBB00C3950A40A3EE2480F582E43FF583E0251B
:102CCB000BF08003750B00120C99A90B7F06020306
:102CDB004774F31202E1EAFEEBFF8C088D09890CB5
:102CEB00120C8F8A0A8B0BAA0AAB0B750D00805640
:102CFB00EE2481F582E43FF583E0F87900EE28F5C8
:102D0B0082EF39F583E0C0E0850D0A750B00E5080D
:102D1B00250AF582E509350BF583D0E0F0EE248129
:102D2B00F582E43FF583E02401F0EE2481F582E4A3
:102D3B003FF583E06480700CEE2481F582E43FF56F
:102D4B00837400F0050DE50DC3950C5011EE248036
:102D5B00F582E43FF583E0F8E50DC3984092EE244D
:102D6B0080F582E43FF583E0C3950DF0120C99A931
:102D7B000D7F06020347C082C083EA2480F582E4FC
:0A2D8B003BF583E0F9D083D08222EB
:04000005000000CD2A
:00000001FF
